:020000040800F2
:1000000010080024AD020008915D0008AD530008FF
:10001000595A0008D10500087B6A0008000000005A
:1000200000000000000000000000000085600008E3
:100030009D0A000800000000435E00080D640008EF
:10004000C7020008C7020008C7020008C70200086C
:10005000C7020008C7020008C7020008C70200085C
:10006000C7020008C7020008C70200084D060008C2
:1000700059060008C7020008C7020008C7020008A6
:10008000C7020008C7020008C5050008C70200082B
:10009000C7020008C7020008C7020008B90A000822
:1000A000C7020008C7020008C7020008A9650008C7
:1000B000C7020008C7020008C7020008C7020008FC
:1000C000C7020008C7020008C7020008C7020008EC
:1000D000C7020008C7020008C7020008C7020008DC
:1000E000A10A0008C702000800000000C7020008BB
:1000F000F9650008C7020008C7020008C702000827
:10010000C7020008C7020008C7020008C7020008AB
:10011000C7020008C7020008C7020008C70200089B
:10012000C7020008C7020008C7020008C70200088B
:10013000C7020008C7020008C7020008C70200087B
:1001400000000000000000000000000000000000AF
:10015000C7020008C7020008C7020008C70200085B
:10016000C7020008C7020008C7020008C70200084B
:10017000C7020008C7020008C7020008000000000C
:10018000C7020008C7020008C7020008C70200082B
:10019000C7020008C7020008C7020008C70200081B
:1001A000C7020008C7020008C7020008C70200080B
:1001B000C7020008C7020008C7020008C7020008FB
:1001C000C7020008C7020008C7020008C7020008EB
:1001D000C7020008C7020008C7020008C7020008DB
:1001E000C7020008C7020008C7020008C7020008CB
:1001F000C7020008C7020008C7020008C7020008BB
:10020000C7020008C7020008C7020008C7020008AA
:10021000C7020008C7020008C7020008C70200089A
:10022000C7020008C7020008C7020008000000005B
:10023000C7020008C70200080000000019030008F8
:10024000C7020008C7020008C7020008C70200086A
:10025000C7020008C7020008C7020008C70200085A
:10026000C7020008C7020008C7020008C70200084A
:10027000C7020008C7020008C7020008000000000B
:10028000C7020008C7020008C702000800000000FB
:1002900000000000C7020008DFF80CD000F02AF8C8
:1002A00000480047096C00081008002406488047F1
:1002B00006480047FEE7FEE7FEE7FEE7FEE7FEE74B
:1002C000FEE7FEE7FEE7FEE7C564000899020008C6
:1002D000D2B201E000F8012B491EFBD27047002288
:1002E000F6E710B513460A4604461946FFF7F0FF35
:1002F000204610BD064C074D06E0E06840F00103C3
:1003000094E8070098471034AC42F6D3FFF7C8FFD3
:100310006074000880740008014801F065B80000AE
:100320000401002470B53A4905460068884202D0AD
:10033000384A904202D1D1F8080302E03648D0F89A
:10034000080310F4403F11D003F0B4FE044668687F
:10035000B0F5803F06D0B0F5003F03D0B0F5403F88
:1003600026D101E0000C17E0A40821E04FF40020A2
:1003700003F026F8044668688103890B18D18114BC
:100380000C2915D2DFE801F0140606060606060B56
:100390000D0F1113800C4000B4FBF0F408E02409A9
:1003A00006E0640904E0A40902E0E40900E0240A8C
:1003B00002F034FD41F20301884208D81748844214
:1003C0002868816813D821F48071816070BD144958
:1003D0006008884204D82868816821F44071F4E7F5
:1003E0001049884206D82868816821F4407141F498
:1003F0008071EAE70C4988422868816804D821F4B2
:10040000407141F40071E0E741F44071DDE7000024
:10041000002002400021024000600258002D3101FE
:10042000105E5F0020BCBE0040787D0110B5846B7B
:10043000616D11F0500F06D0616DC90625D52046BB
:1004400000F0D1FF10BD606D40F400706065206861
:100450000168090707D504F0D3FF90B12068C06890
:10046000800403D50DE0C06880070AD1606D20F4D8
:1004700080706065606DC00403D4606D40F0010061
:100480006065204600F0FCFE10BDE16CC96CBDE863
:100490001040084710B5806B416D41F04001416547
:1004A000816D41F00401816500F09DFF10BD10B524
:1004B000806B00F097FF10BD70B50446006881683E
:1004C0008268C1F3400112F0010F24D019BB81688A
:1004D00001F00D01012910D18168104A1140891CD9
:1004E000816021680320086002F09EFC05460EE052
:1004F00002F09AFC401B022809D9606D40F0100000
:100500006065A06D40F00100A065012070BD20680D
:100510008068C007ECD1002070BD0000C0FFFF7FE5
:1005200070B504460068816811F0010F3DD1816803
:100530001F4A11422AD18168D5432940491C816054
:1005400002F072FC1B4B064620681B49984201D002
:10055000884201D1194A00E0194A9268884202F0A3
:100560001F0201D1194600E00146814218D0BAB1FC
:100570001BE0816811F0010F03D181682940491CFB
:10058000816002F051FC801B022809D9606D40F0A7
:1005900010006065A06D40F00100A065012070BDF5
:1005A00020680168C943C907E3D1002070BD00007D
:1005B0003F00008000200240002102400023024052
:1005C00000630258014800F00FBF0000A0000024A3
:1005D000FEE7017B80ED000A01291ED1D0ED010A62
:1005E000F4EEC00AF1EE10FA0BD290ED021A70EEA2
:1005F000810AC0ED010AF4EEC00AF1EE10FA0CDC3B
:100600000DE00CDD90ED021A70EEC10AC0ED010A9A
:10061000F4EEC00AF1EE10FA01D280ED010A90ED7D
:10062000010A7047D0ED000A9FED070AC1ED000AEC
:10063000D0ED010A90ED021A70EEC10A20EE800A98
:1006400081ED010A704700003ACD133F014801F0E7
:10065000FFBB000068010024014801F0F9BB000065
:10066000E0010024294A016891423AD0274A183211
:10067000914236D0254A3032914232D0234A483214
:1006800091422ED0214A603291422AD01F4A7832BC
:10069000914226D01D4A9032914222D01B4AA83264
:1006A00091421ED01A4A91421BD0194A18329142E7
:1006B00017D0174A3032914213D0154A483291422E
:1006C0000FD0134A603291420BD0114A78329142D6
:1006D00007D00F4A9032914203D00D4AA83291427E
:1006E00011D1CAB21823103AB2FBF3F26FF3090129
:1006F000032A02F00703074AD25CC26500D9091D2C
:1007000081650846704721F0FF01F9E710000240BB
:1007100010040240426C000830B5224A01230168EF
:100720009142CAB21BD01F4C1434A14217D01D4CA9
:100730002834A14213D01B4C3C34A1420FD0194C99
:100740005034A1420BD0174C6434A14207D0154C51
:100750007834A14203D0134C8C34A1420CD1142123
:10076000114C083AB2FBF1F10F4A803201F01F053B
:1007700004EB8101AB4010E00C4D1824103A0D44FD
:10078000B2FBF4F1A82D00D80831094A01F01F048A
:1007900002EB8101064AA3408032603080E80E00FF
:1007A00030BD00000854025800580258F0FBFDBF4D
:1007B0000008024010B50279531E072B2DD8174CA4
:1007C0000168A1421BD0154C1434A14217D0134C20
:1007D0002834A14213D0114C3C34A1420FD00F4C0D
:1007E0005034A1420BD00D4C6434A14207D00B4CC5
:1007F0007834A14203D0094C8C34A14203D108497A
:10080000074C443102E00749064C443104EB8202B4
:10081000C0E91B2101219940416710BD08540258CD
:10082000FC580258FC08024010B583694FF0C074B0
:10083000826A0146002053B1B3F5005F15D072B152
:10084000012A0CD0022A0AD0032A09D104E01AB1E5
:10085000012A06D0022A03D1C96AC90100D50120A4
:1008600010BDC96AA142FAD010BD002AF7D0012AF2
:10087000F2D0022AF3D0032AF3D010BD2DE9F04FB5
:10088000804E804FDFF8FC911836DFF8F8A148372A
:100890000468856D0AF1300ADFF8ECB14C45DFF8E9
:1008A000ECC1DFF8ECE16DD0B4426BD0544569D0B7
:1008B000BC4267D0DFF8D081A8F11808444561D068
:1008C0005C455FD064455DD074455BD0DFF8C48182
:1008D000444557D0DFF8BC8108F11808444551D091
:1008E000DFF8B08108F1300844454BD0DFF8A4812F
:1008F00008F14808444545D0DFF8988108F16008C0
:1009000044453FD0DFF88C8108F17808444539D060
:10091000DFF8808108F19008444533D0DFF8748116
:1009200008F1A80844452DD0DFF86C81444529D052
:10093000DFF8648108F11408444523D0DFF85881BA
:1009400008F1280844451DD0DFF84C8108F13C0827
:10095000444517D0DFF8408108F15008444511D0D4
:10096000DFF8348108F1640844450BD0DFF82881B2
:1009700008F17808444505D0DFF81C8108F18C089F
:10098000444509D1D0E91948C4F80480C46E1CB1AB
:10099000D0E91C48C4F8048004684C452ED0B44209
:1009A0002CD054452AD0BC4228D0374E183EB442F1
:1009B00024D05C4522D0644520D074451ED0354EED
:1009C000B4421BD0334E1836B44217D0314E3036B5
:1009D000B44213D02F4E4836B4420FD02D4E60365D
:1009E000B4420BD02B4E7836B44207D0294E903605
:1009F000B44203D0274EA836B44215D190F85C60BB
:100A00003F2406F01F06B440AC600468256825F456
:100A1000802525602EE09A600068C160BDE8F08FF7
:100A200099600068C260F9E71B4EB4421BD01A4EB1
:100A30001436B44217D0184E2836B44213D0164E8E
:100A40003C36B4420FD0144E5036B4420BD0124E46
:100A50006436B44207D0104E7836B44203D00E4EFE
:100A60008C36B442DAD190F85C60012406F01F069F
:100A7000B4406C60046863608368402B0368CFD126
:100A8000C9E700001000024088000240A0000240B8
:100A9000B800024010040240085402587047000099
:100AA0000448017909B1012101714FF4004002F0BD
:100AB0008AB80000720000244FF0B04010B5D0F8A2
:100AC0008810090603D4D0F88800C00506D505F0C3
:100AD000CDF807490020487000F086F8802002F029
:100AE00072F8BDE810404FF4807002F06CB800005E
:100AF0007200002472B6FEE730B50C4605462DEDB7
:100B0000048B8BB0F0EE428AB0EE618AF0EE419A2F
:100B1000B0EE609A06A800F0CBF808A92846FFF7C7
:100B200081FD02AA06A908A805F06EF99FED270A23
:100B3000274828EE000A80ED060A1C3080ED060AE0
:100B40001C38DDED020AB0EE690A05F022F9B0EEBC
:100B5000081ADFED201A28EE811A9FED1F3ADDED0D
:100B6000030A9FED1E2A61EE212A19481C3022EE4D
:100B7000831A21EE201AC1EE021A30EE610A8DEDC1
:100B8000040AB0EE490A05F004F982EE821ADDED9E
:100B9000021A9FED133ADFED130A06A96A4604A86C
:100BA00041EE830A01EE200A8DED050A04F0FFFBF9
:100BB0009DEC020A221D2046A11CB0EE481A05F049
:100BC00063FA0BB0BDEC048B30BD00003ACD133F8F
:100BD00050030024DB0FC940452F233B0000704227
:100BE000E44EE93AF167F83C0D4B9FED0C0A03F136
:100BF0001C0083ED040A83ED050A80ED040A00F170
:100C00001C0180ED050A81ED040A00F1380281ED36
:100C1000050A82ED040A82ED050A70470000000013
:100C2000500300241A489FED180A9FED1A1ADFEDB1
:100C3000170A80ED000A80ED011A00F11C01DFEDBA
:100C4000161AC0ED060A81ED000AC1ED011A00F185
:100C50003802B1EE0C3AC1ED060A9FED102ADFED25
:100C6000102A82ED063ADFED114A00F15403DFED60
:100C70000D3A9FED0D4A82EC022AC3ED064AC3EC01
:100C8000023AFFF7B1BF0000C3F52C4188C03842DB
:100C900050030024F7AA853DEF1B3F3D3485CE3C31
:100CA0002D18A6386626DE43B6F31D4000401C46CC
:100CB00010B504462DED028BB0EE408A05F05EFFC4
:100CC00084ED000AB0EE480A05F01CFF84ED010A2D
:100CD000BDEC028B10BD0000F8B500270446154698
:100CE0000E46009790F8500001280BD0012084F8A0
:100CF00050002046FFF7E0FB0100606D04D040F09B
:100D000010002DE00220F8BD20F4885040F00200D1
:100D10006065206806F4803205F08043134D1A4365
:100D200083682B401A4342F000428260104A2068D8
:100D30000EE0009B5B1C0093934209D3606D84F826
:100D4000507020F0020040F0100060650120F8BDF6
:100D50008368DB0FEDD1606D20F0020040F00100F0
:100D60006065084684F85070F8BD0000C0FFFE3F83
:100D700000F8C32570477047704770477047000000
:100D80002DE9F047044690F8500000270E46012850
:100D90009AB014D0DFF8F880012122684FF00009E2
:100DA00084F8501042450ED13A4D0095284604F083
:100DB00023FB8246206804F01FFB60B10EE0022096
:100DC0001AB0BDE8F087616D84F8509041F02001C1
:100DD00061650120F4E7BAF1000F09D0606D0127C9
:100DE00040F02000C4F85400384684F85090E7E7FB
:100DF00020684146884201D0A84201D1264800E03F
:100E0000264840F61F72D6F800C0254BBCF1000FF3
:100E100023D0D0F808C0D6F804802CF4404C4CEA1B
:100E2000080CC0F808C0D4F800C08C4501D0AC450F
:100E300007D18968AB6801F0010103F00103194390
:100E400002E0996801F001010029CDD1B56831684F
:100E5000836829439343194317E0866826F4404684
:100E6000866026688E4201D0AE4207D18968AB68A1
:100E700001F0010103F00103194302E0996801F058
:100E800001010029B0D1816891438160ACE7000085
:100E9000002002400021024000230240006302586B
:100EA000006002582DE9F84F4FF0000B0446E64E63
:100EB0000D46CDF800B05F4690F85000DFF88CA3E7
:100EC000012808D04FF0010984F85090206804F000
:100ED0008FFA18B16BE10220BDE8F88F216828680D
:100EE000CA69030328D090FAA0F0B0FA80F000BFDE
:100EF00000F01F0309FA03F00243CA61D5E90012AA
:100F00004FF00C0C20681F23C1F384610CEA921C83
:100F100002F01F02604493409140026B9A430A43DF
:100F20000263206804F064FA8046206804F05CFAEA
:100F300058EA000003D07FE0C0F38460D8E720685F
:100F4000AA68296804F064FAC1490968B9EB117FFD
:100F500006D121686869C968C1F38201490008E0C7
:100F60002068C168C906C1686869F5D501F010013B
:100F700049088840296904292ED023682A6803EB90
:100F8000810102F0F8420B6E024303F0004010436F
:100F90000866697E20682A69012917D05FF0000180
:100FA00000EB8200026E22F000420A430266297EB4
:100FB00020682A6901290CD00021036902F01F0270
:100FC000914023F4F0420A43026135E04FF00041C2
:100FD000E6E74FF40061F0E720682978026E02F03E
:100FE000F842B2EB816F03D1016E21F0004101663E
:100FF00020682978426E02F0F842B2EB816F03D18B
:10100000416E21F00041416620682978826E02F02D
:10101000F842B2EB816F03D1816E21F0004181660D
:1010200020682978C26E02F0F842B2EB816F03D1DA
:10103000C16E21F00041C1662068816811F0010F86
:1010400078D150F8C03F2A7BDFF808C2296802F047
:1010500018022CFA02FCC1F3130823EA08030CEA75
:10106000010C43EA0C0303607B48E968814277D1B5
:10107000286801031BD090FAA0F1B1FA81F1491C54
:1010800001F01F0109294FEA003131D8002911D0A0
:1010900090FAA0F1B1FA81F101F1010101F01F0113
:1010A00009FA01F209D100BFC0F3846109E0C0F37D
:1010B0008461E4E7C0F38461EEE790FAA0F1B1FA4D
:1010C00081F101F1010101F01F0142EA816102D1C8
:1010D000C0F3846003E090FAA0F0B0FA80F000F171
:1010E000010000F01F0000EB400041EA005133E036
:1010F00000290ED090FAA0F1B1FA81F101F10101BD
:1011000001F01F0109FA01F206D100BFC0F38461AA
:1011100006E0C0F38461F1E790FAA0F1B1FA81F141
:1011200001F1010101F01F0142EA816103D1C0F325
:10113000846004E040E090FAA0F0B0FA80F0474A02
:1011400000F1010000F01F0000EB400002EB005036
:1011500041EA000141F00071AA68206804F058F9E2
:10116000D5F800C0BCF1000F26DA3D4B20683D49A0
:10117000DFF8F490984201D0B04201D10A4600E075
:101180004A469268984202F0E07201D0B04209D11A
:101190009D68D6F8088005F0010508F0010845EAC9
:1011A000080503E0DAF8085005F0010545B1606D67
:1011B000012740F020006065384684F850B08BE687
:1011C0002A4DAC451BD1150219D45045F4D1984293
:1011D00002D0B04200D049468B6842F4000023F0B0
:1011E000E07202438A60234921480968B1FBF0F0AC
:1011F000400000E0401E00900028FBD1DCE71E4DBF
:10120000AC450CD1D5010AD45045D5D1984202D075
:10121000B04200D049468B6842F080700EE0174D16
:10122000AC45C9D15502C7D45045C5D1984202D06A
:10123000B04200D049468B6842F4800023F0E0724F
:1012400002438A60B8E700000021024000600258B3
:101250000010005CFFFF0F000000FF47000020FEB1
:10126000002002400023024000630258000084CBAB
:10127000400D030094000024000052C70000B8CFC6
:10128000F0B5504988422DED028B85B05ED1012228
:101290004D4ED5033046294601F0BAFD4B4B002791
:1012A00000971A1F0197111F081F04F041FC4748BF
:1012B000001D04F023FC45490C31081F04F012FD09
:1012C000424C4348183C94ED030A8DED020A94ED1C
:1012D000040A8DED030A94ED050A8DED040A0179E7
:1012E000012937D0417801293DD00178032901D067
:1012F0000121017000221146104604F0D5FCFFF7D1
:1013000073FC04F0ABFF9FED331AD4ED090A9FED97
:10131000332AD4ED081AC0EE812A9FED2F0AC1EEC0
:10132000820A22EE801A60EE800ABCEEC10AFCEE50
:10133000E00A10EE100A10EE901A80B289B204F0A2
:10134000C1FB00222946304601F062FD05B0BDEC2C
:10135000028BF0BD07706846811C94ED070A01AA54
:1013600004F0D6FF25E002210170184894ED098AA7
:101370001030D4ED088A94ED020AFFF72AF91848D4
:10138000F0EE480A94ED020A04F003FD0F49143907
:10139000081F04F073FFB0EE482AD4ED071A94ED4D
:1013A000001AD4ED010AB0EE680A02A86946FFF7F8
:1013B000A3FBBDF80420BDF80210BDF8000004F046
:1013C00073FCA0E7A00000240004025818000024C9
:1013D000720000240000FA4400F07F45DB0FC94092
:1013E00088030024704770472DE9F05F04460068C9
:1013F00006684568DFF87082DFF870B2DFF8709237
:10140000404501D0484501D1584600E099488068E0
:1014100000F01F07B0070ED5A8070CD5606DC006F9
:1014200003D4606D40F4006060652046FFF7A2FCC5
:10143000216802200860700701D5680703D43007CF
:1014400037D5280735D5606DC00603D4606D40F4EC
:1014500000706065206803F0D3FF20B32068484522
:1014600001D1424600E00246824208D03FB1052F3A
:1014700005D0092F03D0484503D1414602E0C16899
:1014800001E00146C96889040DD4016809070AD53D
:1014900003F0AEFF58B3606D40F010006065A06DC2
:1014A00040F00100A0652046FFF7EAFE21680C200D
:1014B0000860B00601D5A80603D4700658D56806A2
:1014C00056D5606DC00603D4606D40F40050606571
:1014D0002068C16C11F4C07F1AD000218A4603F045
:1014E0008FFF02462068484514D1434613E0206828
:1014F000416821F00C014160606D20F480706065EE
:10150000606DC004CFD4606D40F001006065CAE733
:101510000121E3E70346834208D03FB1062F05D0FF
:10152000072F03D0484503D1414602E0C16801E0DE
:101530000146C968BAF1000F04D18B0112D48AB1F7
:101540008A040FD4026852060CD589020AD403F02B
:101550004BFFE8B3606D40F010006065A06D40F097
:101560000100A0652046FFF706FC216860200860A6
:1015700030060BD5280609D5606D40F480306065D3
:10158000204600F08BF9216880200860F0050CD51A
:10159000E8050AD5606D40F4003060652046FFF72D
:1015A000ECFB21684FF480700860B0050CD5A805ED
:1015B0000AD5606D40F4802060652046FFF7DEFBB1
:1015C00021684FF400700860F00631D5E80600E0AD
:1015D0000AE02DD5206BE8B12068EFB3404501D07B
:1015E000484512D1584611E02068416821F0600159
:1015F0004160606D20F480506065606DC005B1D4BD
:10160000606D40F001006065ACE71A48806800F446
:10161000404050B1606D40F480606065A06D40F066
:101620000200A0652046FFF7DEFE2168102008605A
:10163000700517D5680515D5616D4FF4806041F4CC
:1016400080416165A16D41F00801A16521680860D4
:101650002046BDE8F05F00E001E0FFF78DBBC06809
:101660008007D6E7BDE8F09F00200240002302403B
:101670000021024000630258F8B54FF00006040054
:101680003546009602D0606D10B107E00120F8BD2C
:10169000204600F005F9A66584F85060206881684E
:1016A000C1F3407119B181686F4A114081602068AF
:1016B0008168C1F3007179B981686C4A114041F0C9
:1016C000805181606B496A480968B1FBF0F000E025
:1016D000401E00900028FBD120688168C1F3007192
:1016E00041B9616D012541F010016165A16D41F0C5
:1016F0000101A16503F07CFE616DC90600D420B133
:10170000606D012540F0100093E0606D20F4807062
:1017100040F0020060652068816811F0010F1FD160
:101720005549564B884201D0984207D18A689E6835
:1017300002F0010206F00106324303E0504A9268CB
:1017400002F0010262B9884201D0984201D14D48AD
:1017500000E04D488268616822F47C120A4382608E
:1017600001F05CFB41F20301884202D9A068102815
:101770000CD0617D227FA368206B490341EA0241BE
:1017800018430843217F01290CD010E0607D227F9F
:10179000216B400340EA024241F01000104340F048
:1017A0000C00EFE7218C394A02EB41410843616AA2
:1017B00029B1A26A01F47871014342EA010022686A
:1017C000334BD16819400143D160206803F010FE0B
:1017D0000646206803F008FE30431DD1216844F21C
:1017E0000303267DE26AC86842EA863298431043C2
:1017F000C86094F8380001281ED02068016921F0E3
:10180000010101612068626B016921F0704111439F
:1018100001612046FEF786FDE068012820681CD0A3
:10182000016B21F00F010163606D20F0020040F0B8
:10183000010060652846F8BD2068A38F154FD4E9E4
:10184000101C154E07EB0347A26C036941EA0C011B
:101850003A43334011431943D3E7A269016B521E47
:1018600021F00F011143DEE7C0FFFF5FC0FFFF7FE4
:10187000400D03009400002400200240002102409B
:101880000060025800230240006302580000FEFF7F
:1018900003C0F0FF0100FFFF1EF800FC70470000CE
:1018A00010B5B6B00446142131A8FEF718FDBC21CE
:1018B00002A8FEF714FD8549206888427ED14FF4C6
:1018C00000200290052003904821049105210591F4
:1018D00002210691079180210891002109910A9126
:1018E00000202A9002A801F059FE08B1FFF702F982
:1018F00000BF7748006840F020007549086008463E
:10190000006800F02000019000BF00BF00BF7048D9
:101910000830006840F001006D4908310860084651
:10192000006800F00100019000BF00BF00BF084642
:10193000006840F0040008600846006800F00400F9
:10194000019000BF00BF00BF0846006840F00200E1
:1019500008600846006800F00200019000BF00BF68
:1019600000BF0846006840F0200008600846006894
:1019700000F02000019000BF00BF40203190032004
:1019800032900020339031A9524801F029F91020FB
:101990003190032032900020339031A94E4801F05D
:1019A0001FF902203190032032900020339031A99A
:1019B0004A4801F015F94FF4006000E030E0319042
:1019C000032032900020339031A9454801F008F9F6
:1019D0004448454908600920486000214248816028
:1019E000C1604FF4806101614900416189008161FA
:1019F0004911C16100210162416200F0A1FD08B1FD
:101A0000FFF778F800BF3848E064846300BF002225
:101A10001146122001F080FA122001F06FFA52E014
:101A20003249206888424ED100BF294808300068FA
:101A300040F080702649083108600846006800F0D0
:101A40008070019000BF00BF00BF0846006840F0F2
:101A5000200008600846006800F02000019000BFE8
:101A600000BF08203190032032900020339031A92C
:101A70001B4801F0B5F81B4818301D490860732059
:101A8000486000211A488160C1604FF480610161A3
:101A900049004161890081614911C16100210162F0
:101AA000416200F04DFD08B1FFF724F800BF104877
:101AB000E064846300BF002211467F2001F02CFA0D
:101AC0007F2001F01BFA36B010BD0000002002405C
:101AD000D844025800000258000802580004025876
:101AE00000140258100002406801002400600258EF
:101AF000E00100242DE9F047384E04460068914685
:101B0000DFF8DC808A46B04201D0404501D135493A
:101B100000E03549896801F01F0503F069FC0028E1
:101B200059D194F85000012855D001204FF00007FA
:101B300084F8500025B1052D02D0092D00D003E016
:101B40002046FEF7EDFC18B184F85070BDE8F08730
:101B5000616D40F6016320689943404541F480710E
:101B6000616500D00646864200D01DB9606D20F444
:101B700080106065606DC00404D5A06D20F0060083
:101B8000A06500E0A7651C20E16C184ACA63E26CFE
:101B900017491164E26C1749D1642168086084F820
:101BA00050702068416841F0100141602068E16A8E
:101BB000C26822F003020A43C26021684B46E06C0F
:101BC0005246403100F09EFE21680B4B8A681A4055
:101BD000121D8A60BAE70220B8E700000020024028
:101BE0000021024000230240006302582D04000837
:101BF000AF04000895040008C0FFFF7F2DE9F047FF
:101C00000446407990460E4601280BD04FF001095A
:101C100084F8059002212171316808F0100504292B
:101C200003D049E00220BDE8F08701F0FDF8B8F1EB
:101C3000000F07464FF0030806D020E001F0F4F84B
:101C4000C01B012802D912E0DFF800A12068406B18
:101C500010EA0A0FF2D1012000F0A2FF2168B0695A
:101C6000086416E001F0E0F8C01B012807D92169DB
:101C700041F00801216184F804800320D3E7206843
:101C8000406B0028EEDB012000F08AFF2168B0697C
:101C9000486440F2FF332168F269AB40886CAA4087
:101CA0009843104388642068FF22336AAA40C16CBD
:101CB000AB4091431943C1643069012808D12268BF
:101CC0001F237169906BAB40A94098430143916316
:101CD00023680721F068DA6BA940012822EA010293
:101CE00003D002282FD0B06868B30021D6F808804E
:101CF00030684FF4804C40F6FE7740EA0800084315
:101D00000CFA05FCAF40A840C02110434A46D863F6
:101D10004FF000082068A940036823EA0C03036021
:101D2000D4F800C07068DCF80030A840BB4318430A
:101D3000CCF80000206803688B4303602271002008
:101D400084F805806FE70121D0E7000000800020C3
:101D500070B5040003D02079002510B105E0012002
:101D600070BD2046657100F007F802212171012045
:101D700025612071002070BD10B586B00446142185
:101D80006846FEF7ACFA1149206888421BD110481A
:101D9000016841F000510160006800F000500590BA
:101DA0000B480838016841F0010101600068032117
:101DB000002200F00100059030208DE80700054862
:101DC000694600F00DFF06B010BD00000074004031
:101DD000E84402580000025808B500290168009143
:101DE0000068104404D0143000900360002008BD47
:101DF0000830F9E7F0B54279012A1DD0012242717D
:101E000002230371066801F0100402FA04F5376832
:101E10002F4337600029016810D00D68A34005F4F6
:101E200078149C4203D14B6843F002034B600021BD
:101E3000027141710846F0BD0220F0BD0B68C3F38A
:101E40004403012BF3D14B6843F00103EEE700009C
:101E50002DE9FC5F0446FA4E0020DFF8E483009091
:101E60004FF41652F74808F11808A56DDFF8D0A313
:101E7000DFF8CCB301680AF1300A20680BF1480B97
:101E8000B1FBF2F1B04201912F68D5F800C0DFF844
:101E9000B89336D04146884233D0504531D058456A
:101EA0002FD0E749603188422BD0E549783188420C
:101EB00027D0E3499031884223D0E149A8318842B4
:101EC0001FD048451DD0E0491831884219D0DE495D
:101ED0003031884215D0DC4A4832904211D0DA497C
:101EE000603188420DD0DFF860E30EF1780E704566
:101EF00007D0D54B9033984203D0D349A8318842BC
:101F00007ED194F85C20082102F01F0201FA02F24F
:101F10003A424BD0B04233D0404531D050452FD01B
:101F200058452DD0C64A6032904229D0C44A7832F2
:101F3000904225D0C24A9032904221D0C04AA83265
:101F400090421DD048451BD0BF4A1832904217D04E
:101F5000BD4A3032904213D0BB4A483290420FD033
:101F6000B94A603290420BD0B74A7832904207D0DB
:101F7000B54A9032904203D0B34AA832904203D17E
:101F8000026802F0040202E0026802F008026AB18C
:101F9000026822F00402026094F85C0000F01F0066
:101FA0008140A960606D40F00100606594F85C00BC
:101FB000012100F01F008140394241D02068B04229
:101FC00035D0404533D0504531D058452FD09C4A6C
:101FD000603290422BD09A4A7832904227D0984A69
:101FE0009032904223D0964AA83290421FD0484562
:101FF0001DD0954A1832904219D0934A303200E0F1
:10200000B2E1904213D0904A483290420FD08E4AAB
:10201000603290420BD08C4A7832904207D08A4A84
:102020009032904203D0884AA83290427ED14069D3
:1020300010F0800F04D0A960606D40F00200606570
:1020400094F85C00042100F01F00814039423FD029
:102050002068B04233D0404531D050452FD058454C
:102060002DD0774A6032904229D0754A783290421A
:1020700025D0734A9032904221D0714AA8329042C2
:102080001DD048451BD0704A1832904217D06E4A76
:102090003032904213D06C4A483290420FD06A4A94
:1020A000603290420BD0684A7832904207D0664A3C
:1020B0009032904203D0644AA83290424FD10068D7
:1020C00010F0020F04D0A960606D40F0040060655C
:1020D00094F85C00102100F01F008140394259D073
:1020E0002068B04235D0404533D0504531D05845B6
:1020F0002FD0534A603290422BD0514A78329042CE
:1021000027D04F4A9032904223D04D4AA832904275
:102110001FD048451DD04C4A1832904219D04A4A27
:102120003032904215D0484A483200E015E09042E3
:102130000FD0454A603290420BD0434A78329042E9
:1021400007D0414A9032904203D03F4AA832904291
:1021500007D1006800F0080006E0006870E700683A
:10216000B6E7006800F00400A0B1A960206801682B
:10217000490304D50068000308D5A16C07E0016895
:10218000C90503D4016821F008010160216C09B17F
:102190002046884794F85C00202100F01F00814011
:1021A000394278D02068B04233D0404531D05045D4
:1021B0002FD058452DD0224A6032904229D0204A53
:1021C0007832904225D01E4A9032904221D01C4A4B
:1021D000A83290421DD048451BD01B4A183290426D
:1021E00017D0194A3032904213D0174A48329042E1
:1021F0000FD0154A603290420BD0134A7832904289
:1022000007D0114A9032904203D00F4AA832904230
:1022100003D1006800F0100002E0006800F0020046
:10222000A0B3A96094F835000428206801680DD097
:1022300049037DD50068000329D4616C28E00000C3
:1022400010000240940000241004024021F0160106
:1022500001602068416921F080014161206C08B96A
:10226000A06C20B12068016821F00801016094F899
:102270005C303F21002203F01F0301209940A96038
:1022800084F8342084F83500216D66E003E0E16BCA
:1022900009B120468847606D00287DD0606DC00779
:1022A0005AD02068042184F83510B0422BD0404524
:1022B00029D0504527D0584525D09E49884222D064
:1022C0009C49183188421ED09A49303188421AD030
:1022D00098494831884216D0484514D096498842DA
:1022E00011D09549183188420DD093493031884238
:1022F00009D091494831884205D08F4960318842E0
:1023000001D08D497831016821F001010160206818
:102310000099019A491C0091914202D80168C907AD
:10232000F6D1002184F834100068C00711D000E015
:1023300001E003200EE00168C905A8D4036800226B
:10234000012123F01003036084F8342084F8351051
:102350009DE7012084F83500E16C00291CD002B013
:102360002046BDE8F05F0847744988421DD0734994
:102370001431884219D071492831884215D06F49EB
:102380003C31884211D06D49503188420DD06B49A3
:102390006431884209D000E086E06849783188429B
:1023A00003D066498C3188427ED194F85C80042742
:1023B000016808F01F0807FA08F717EA0C0F0097E2
:1023C00046D04F0744D500980F04686003D5C80372
:1023D0003CD4A16CC1E7880638D42068B0422DD027
:1023E00054494839884229D0504527D0584525D0EE
:1023F0005049884222D04F49183188421ED04D4959
:10240000303188421AD04B494831884216D048456D
:1024100014D04949884211D04749183188420DD01B
:1024200090420BD044494831884207D0704505D0CE
:10243000984203D040499031884203D1016821F08D
:10244000080102E0016821F004010160216C84E7C9
:10245000022707FA08F717EA0C0F00974ED08F07EC
:102460004CD500980F04686003D5C80344D4616C50
:1024700073E7880640D42068B0422FD02D494839F0
:1024800088422BD0504529D0584527D02949884229
:1024900024D028491831884220D02649303188423A
:1024A0001CD02449483100E041E0884216D048451C
:1024B00014D02149884211D01F49183188420DD0CB
:1024C00090420BD01C494831884207D0704505D056
:1024D000984203D018499031884203D1016821F015
:1024E000140102E0016821F00A010160002184F872
:1024F0003410012084F83500E16B2EE7082202FA3F
:1025000008F212EA0C0F12D0090710D5016821F069
:102510000E01016094F85C100120002201F01F01FF
:1025200000FA01F16960606584F8342012E7BDE8C3
:10253000FC9F00007000024028040240085402582A
:102540002DE9F05F044600F06FFC002C07467DD0BB
:10255000E34E022120684FF00308DFF888934FF024
:102560000005DFF884A3B042DFF880B334D0DC4A42
:102570001832904230D048452ED050452CD0584586
:102580002AD0DA4A1832904226D0D84A30329042C5
:1025900022D0D64A483290421ED0D54A90421BD013
:1025A000D34A1832904217D0D14A3032904213D0D9
:1025B000CF4A483290420FD0CD4A603290420BD081
:1025C000CB4A7832904207D0C94A9032904203D029
:1025D000C74AA83290427DD184F8345084F835102F
:1025E000B0422ED0BE49183188422AD0484528D062
:1025F000504526D0584524D0BC491831884220D0B7
:10260000BA49303188421CD0B8494831884218D084
:10261000B749884215D0B6491831884211D0B4491B
:10262000303188420DD0B2494831884209D0B04992
:102630006031884205D0AE497831884201D0AC493A
:102640009031016821F00101016008E027E100BF3D
:1026500000F0EAFBC01B052801D920211CE12068FD
:102660000068C007F4D104F108002168D4E9053CF2
:102670008E4685C809681043D4E907281F43636A5A
:1026800038439C4F40EA0C001043394040EA0800B0
:10269000042B40EA010003D1D4E90B121143084393
:1026A000954909686FF30F01B1F1005F0FD36168BD
:1026B000A1F12902052A08D9163A032A05D9083AB0
:1026C000012A02D94F39032901D840F48010CEF8ED
:1026D000000000E023E02068676A4069042F20F0D2
:1026E000070047EA00070DD1D4E90A01074349B1C1
:1026F0002046FEF799F828B140206065012184F852
:102700003510CCE0206847612046FDF7ABFF94F818
:102710005C203F2102F01F029140816054E0774A23
:1027200090421BD0754B1433984217D0734B28330B
:10273000984213D0714B3C3398420FD06F4B5033BB
:1027400098420BD06D4B6433984207D06B4B783373
:10275000984203D0694B8C3398427DD1684B84F802
:10276000345084F835100168A26801EA030E402A4B
:1027700073D0802A72D00022D4E90378D4E90531DD
:1027800042EAD70242EAD8085C4AD4E9077C48EA20
:10279000D30848EAD10141EAD701524241EA1C116B
:1027A000142341EA0E01016020681044B0FBF3F0ED
:1027B0008000E0652046FDF755FF94F85C2001217C
:1027C00002F01F02914041602068B04257D0444956
:1027D0001831884253D0484551D050454FD05845C4
:1027E0004DD042491831884249D040493031884261
:1027F00045D03E494831884241D03D4988423ED08B
:102800003B49183188423AD039493031884236D074
:1028100037494831884232D03549603188422ED01C
:102820003349783188422AD031499031884226D0C4
:102830002F49A831884222D0304988421FD02F49E1
:10284000143188421BD02D492831884217D02B499A
:102850003C31884213D002E01DE017E018E0274920
:10286000503188420BD025496431884207D0234932
:102870007831884203D021498C31884229D12046C1
:10288000FDF74AFFA06880280CD00CE0102273E707
:102890004FF4804270E74021616584F83580012063
:1028A000BDE8F09F6560216E20790860D4E91901C8
:1028B00041606068401E072808D82046FDF77AFF6F
:1028C000E06E0560D4E91C01416002E0E566256721
:1028D00065670120656584F835000020E0E70000A9
:1028E00010000240400002405800024070000240C8
:1028F000100402403F8010FE0010005C0854025893
:102900000F00FEFF2DE9F84F04008C464FF0000049
:10291000009013D094F83400012811D094F8355069
:102920000120002184F83400012D0BD084F83410EC
:10293000C202009062650098BDE8F88F0120FBE7B5
:102940000220F9E78C4D0226206884F83560A84201
:102950008A4D61658A4E8B4FDFF82C82DFF82C920E
:10296000DFF82CA2DFF82CB226D0A84224D0B04247
:1029700022D0B84220D040451ED048451CD05045FA
:102980001AD0584518D08449884215D08249183148
:10299000884211D08049303188420DD07E4948317B
:1029A000884209D07C496031884205D07A49783123
:1029B000884201D078499031016821F0010101601D
:1029C00061462046FDF75AFF6B49206888422CD0AB
:1029D000A8422AD0B04228D0B84226D0404524D0C0
:1029E000484522D0504520D058451ED06A4A9042D2
:1029F0001BD0694A1832904217D0674A3032904251
:102A000013D0654A483290420FD0634A60329042F8
:102A10000BD0614A7832904207D05F4A90329042A0
:102A200003D05D4AA83290420CD1026822F01E0207
:102A300042F016020260206C88B12068026842F001
:102A400008020BE0026822F00E0242F00A02026065
:102A5000206C20B12068026842F004020260206805
:102A600088424BD0A84249D0B04247D0B84245D066
:102A7000404543D0484541D050453FD058453DD0D2
:102A8000454A90423AD0444A1832904236D0424A9F
:102A90003032904232D0404A483290422ED03E4AA4
:102AA000603290422AD03C4A7832904226D03A4A4C
:102AB0009032904222D0384AA83290421ED0374AF3
:102AC00090421BD0354A1432904217D0334A2832F4
:102AD000904213D0314A3C3290420FD02F4A5032AC
:102AE00090420BD02D4A6432904207D02B4A783264
:102AF000904203D0294A8C3290420DD1206E026858
:102B0000D20303D5026842F480720260E06E18B10D
:102B1000026842F4807202602068884226D0A8428F
:102B200024D0B04222D0B84220D040451ED04845E3
:102B30001CD050451AD0584518D01749884215D096
:102B400015491831884211D01349303188420DD0CF
:102B500011494831884209D00F496031884205D077
:102B60000D497831884201D00B499031016841F01C
:102B700001010160DFE60000100002402800024071
:102B800040000240580002407000024088000240AD
:102B9000A0000240B800024010040240085402584D
:102BA00070B5044600F040F90546601C02D00448A8
:102BB0000078044400F038F9401BA042FAD370BDFD
:102BC0008800002470474FF0B04110B5D1F888203C
:102BD000024203D0C1F88800FFF7F4FF10BD0000E7
:102BE0002DE9FC4F01257E4C00234FF0030A4FF0E6
:102BF000B04E4FF00F0BEBE005FA03F637403A000A
:102C000077D04F68012F05D0022F03D0112F01D0AC
:102C1000122F1AD187684FEA4308D1F80CC00AFA7C
:102C200008F927EA09070CFA08FC4CEA070CC0F877
:102C300008C0476891F804C0B743CCF3001C0CFAF5
:102C400003FC4CEA070CC0F804C0C6684FEA430C0A
:102C5000D1F80880E1460AFA0CF7BE43019708FA5A
:102C600009F848EA0608C0F80C804E68022E01D028
:102C7000122E12D1DE084FEA437C00EB8606009646
:102C80000F69366A4FEADC6C0BFA0CF807FA0CF79E
:102C900026EA08063743009E37620E790768DDF89A
:102CA00004C006F0030606FA09F627EA0C073E43BD
:102CB00006604E68F6001CD54A4E376847F002079A
:102CC000376036689F0706F00206009623F0030679
:102CD00006F1B046B1463F0FD6F80864DFF8088128
:102CE0000BFA07FC404526EA0C0603D14FF0000C16
:102CF00041E06CE0DFF8F4C0604502D14FF0010C18
:102D000039E0DFF8ECC0604502D14FF0020C32E050
:102D1000DFF8E0C0604502D14FF0030C2BE0DFF894
:102D2000D8C0604502D14FF0040C24E0DFF8CCC0DD
:102D3000604502D14FF0050C1DE0DFF8C4C06045CE
:102D400002D14FF0060C16E0DFF8B8C0604502D1A2
:102D50004FF0070C0FE0DFF8B0C0604502D14FF034
:102D6000080C08E0DFF8A4C0604502D14FF0090C60
:102D700001E04FF00A0C0CFA07FC4CEA060CC9F80B
:102D800008C426684F6826EA0206FF0300D51643EA
:102D9000266066684F6826EA0206BF0300D5164320
:102DA0006660D1F804C07646DEF800705FEACC2C8D
:102DB00027EA020700D517433760D1F804C07768C7
:102DC0005FEA8C2C27EA020700D5174377605B1C6B
:102DD0000A681746DA407FF40FAFBDE8FC8F0000A9
:102DE00080000058F44402580000025800040258C1
:102DF00000080258000C0258001002580014025833
:102E000000180258001C02580020025800240258E2
:102E10000AB1816170470904FBE7000001480068BE
:102E2000000C70470010005C01488068704700008B
:102E3000880000240248816802781144816070474C
:102E400088000024032010B500F086F801F054F942
:102E50000F4A104914681368C4F3032203F00F03E8
:102E60008A5CC95C02F01F0201F01F01D0400A4ACF
:102E700020FA01F1116009490860002000F010F803
:102E800008B1012010BD00F02BF8002010BD00009B
:102E9000184402584A6C000898000024940000244A
:102EA00070B50D4D04462878A0B14FF47A71B1FB8E
:102EB000F0F00A490968B1FBF0F001F03DFC48B9B7
:102EC000102C07D200222146501E00F025F80020C9
:102ED0006C6070BD012070BD880000249400002447
:102EE000054808B5016841F002010160006800F082
:102EF0000200009008BD0000F4440258002809DBDD
:102F0000410900F01F028900012001F1E0219040F9
:102F1000C1F80001704700000E4BF0B41B680D466D
:102F2000C3F30223C3F10706042E00D90426191D9A
:102F3000072901D2002300E0DB1E012404FA06F178
:102F40009C40491E2940641E994014402143F0BC16
:102F500003F094BD0CED00E0064900F0070210B547
:102F60004FF6FF040868044B204040EA0220184353
:102F7000086010BD0CED00E00000FA05134970B5C3
:102F80000A68D243520705D5096801F0070181425A
:102F900013D118E00A6822F0070202430A60FFF723
:102FA00043FF0A4D4FF47A760446083D07E000BF20
:102FB000FFF73AFF001BB04201D9012070BD28681D
:102FC000C0438004F4D4002070BD00000C480258B7
:102FD00010B501F06FF805490968054AC1F30211FF
:102FE000515C01F01F01C84010BD00002044025890
:102FF0004A6C0008494930B5484C0B1D0A680C342E
:1030000009681D68246802F0030305F00102C1F39A
:103010000511C4F3CC04002914FB02F200EE102ABF
:10302000F8EE400A75D03F4A9FED3D1AB7EE000A10
:103030006BB1DFED3D1A012B01D0022B64D002EE03
:10304000101A1168F8EE422A81EEA22A21E0334CD0
:10305000283C23689B0612D5344B246801EE901A55
:103060001168C4F3C104F8EE612AE34001EE903A1E
:10307000C1F30801F8EE611A81EEA22A0BE001EE1D
:10308000901ADFED2B2A00BFF8EE611A116882EE6C
:10309000A12AC1F3080101EE901A1168F8EE611A35
:1030A00040EE811A71EE800A62EE200AC1F34621D9
:1030B00001EE101AB8EE411A31EE001AC0EE811A74
:1030C000BCEEE11A80ED001A1168C1F3064101EE71
:1030D000101AB8EE411A31EE001AC0EE811ABCEE99
:1030E000E11A80ED011A1168C1F3066101EE101AB0
:1030F000B8EE411A31EE000A80EE801ABCEEC10A29
:1031000080ED020A30BD04E001EE901ADFED092ADD
:10311000BAE70021016041608160F3E7284402586A
:1031200000000039304402580024744A0090D00353
:103130000024744C20BCBE4B494930B5484C0B1D93
:103140000A68143409681D68246802F00303C5F393
:103150000012C1F30531C4F3CC04002914FB02F2C0
:1031600000EE102AF8EE400A75D03F4A9FED3D1A56
:10317000B7EE000A6BB1DFED3D1A012B01D0022B37
:1031800064D002EE101A1168F8EE422A81EEA22AEB
:1031900021E0334C283C23689B0612D5344B24682D
:1031A00001EE901A1168C4F3C104F8EE612AE340FD
:1031B00001EE903AC1F30801F8EE611A81EEA22AFD
:1031C0000BE001EE901ADFED2B2A00BFF8EE611A3A
:1031D000116882EEA12AC1F3080101EE901A11686C
:1031E000F8EE611A40EE811A71EE800A62EE200A52
:1031F000C1F3462101EE101AB8EE411A31EE001A61
:10320000C0EE811ABCEEE11A80ED001A1168C1F31C
:10321000064101EE101AB8EE411A31EE001AC0EE66
:10322000811ABCEEE11A80ED011A1168C1F3066142
:1032300001EE101AB8EE411A31EE000A80EE801A43
:10324000BCEEC10A80ED020A30BD04E001EE901A26
:10325000DFED092ABAE70021016041608160F3E7F0
:103260002844025800000039384402580024744AA7
:103270000090D0030024744C20BCBE4B494930B5AB
:10328000484C0B1D0A681C3409681D68246802F04C
:103290000303C5F30022C1F30551C4F3CC04002994
:1032A00014FB02F200EE102AF8EE400A75D03F4AF5
:1032B0009FED3D1AB7EE000A6BB1DFED3D1A012B11
:1032C00001D0022B64D002EE101A1168F8EE422AE7
:1032D00081EEA22A21E0334C283C23689B0612D5BC
:1032E000344B246801EE901A1168C4F3C104F8EE5F
:1032F000612AE34001EE903AC1F30801F8EE611A49
:1033000081EEA22A0BE001EE901ADFED2B2A00BF1E
:10331000F8EE611A116882EEA12AC1F3080101EEEC
:10332000901A1168F8EE611A40EE811A71EE800A67
:1033300062EE200AC1F3462101EE101AB8EE411ADE
:1033400031EE001AC0EE811ABCEEE11A80ED001ACF
:103350001168C1F3064101EE101AB8EE411A31EEC0
:10336000001AC0EE811ABCEEE11A80ED011A116854
:10337000C1F3066101EE101AB8EE411A31EE000AEF
:1033800080EE801ABCEEC10A80ED020A30BD04E076
:1033900001EE901ADFED092ABAE7002101604160D1
:1033A0008160F3E728440258000000394044025885
:1033B0000024744A0090D0030024744C20BCBE4BFF
:1033C0002DE9F0474FF480760146B0426F48DFF8B0
:1033D000B8818AB06E4B4FF080576E4DA8F104044F
:1033E0004FEA20124FF0005C29D1D8F8001001F00C
:1033F000070105291FD2DFE801F0030A0F2014009E
:1034000006A8FFF7F7FD07980AB0BDE8F087684601
:10341000FFF792FE0098F7E703A8FFF72FFF039846
:10342000F2E7216811F04051EED0B94275D1104653
:10343000EAE71846E8E70020E6E72846E4E7B1F5C2
:10344000007F19D0544EB1F5806F26D0B1F5006FD2
:1034500037D04FF4805949454FF4804A4BD1D8F8C2
:10346000001001F4E041B1F5005FD5D03DDC00294A
:10347000C6D04945DFD1CAE7D8F8001001F4E071A1
:103480008029C9D004DC0029BAD04029D3D1BEE7B5
:10349000C029D2D0B142CED1C3E7316801F4600176
:1034A000B1F5800FB8D005DC0029A9D0B1F5001F17
:1034B000C1D1ACE7B1F5C00FBFD0B1F5000FBAD1A3
:1034C000AFE7316801F0E061B1F1007FA4D005DC25
:1034D000002995D0B1F1807FADD198E7B1F1407F5F
:1034E000ABD0B1F1806FA6D19BE7B1F5405FA4D01E
:1034F0005145A0D195E7B1F5002F4FF480350DD09F
:10350000A9421DD1206810F48030B1D0A84292D1D8
:103510006846FFF711FE029876E70EE0316811F475
:103520004031A8D0A94203D0B1F5003F83D178E75C
:1035300003A8FFF7A3FE059866E761459AD178E7EF
:10354000514597D1316801F0E041B1F1405FE3D0DE
:1035500009DC81B1B94211D061458BD103A8FFF7D5
:103560008DFE049850E7B1F1804F3FF460AFB1F1A8
:10357000A04F8BD15DE7FFF72BFD45E76846FFF7CE
:10358000DBFD019840E70000504402580090D00352
:1035900040787D010080BB00584402582DE9FC5F53
:1035A000044650F8241B002500902E460801FE4FCB
:1035B000DFF8F8831DD5606E50B1B0F5801F0CD0D8
:1035C000B0F5001F0ED0B0F5401F1DD001250FE053
:1035D000386840F40030386016E00221201D02F007
:1035E00031FC03E00098022102F0BCFC05000BD086
:1035F0002E462088C00523D5606D05281ED2DFE841
:1036000000F00C11161B1B00626ED8F8001021F49C
:1036100040111143C8F80010EBE7386840F400305F
:10362000386009E00021201D02F00CFC03E0009846
:10363000002102F097FC05466DB100E001252E4601
:103640002088800528D5A06D80281ED00CDC90B184
:1036500040280ED114E0626DD8F8001021F0070167
:103660001143C8F80010EBE7C02813D0B0F5807FF5
:1036700010D001250FE0386840F40030386009E0D0
:103680000021201D02F0DEFB03E00098002102F083
:1036900069FC054695B12E462088DFF81093400559
:1036A00009F108092CD5D4F8A400B0F5800F20D07A
:1036B0000DDCA0B1B0F5001F0FD115E0A26DD8F858
:1036C000001021F4E0711143C8F80010E4E7B0F5F0
:1036D000C00F13D0B0F5000F10D001250FE03868EF
:1036E00040F40030386009E00021201D02F0AAFB00
:1036F00003E00098002102F035FC054675B12E4626
:10370000208800052DD5D4F8A800B0F1007F21D085
:103710000EDCA8B1B0F1807F10D116E0D4F8A4205F
:10372000D9F8001021F460011143C9F80010E7E74F
:10373000B0F1407F13D0B0F1806F10D001250FE0C1
:10374000386840F40030386009E00021201D02F0A4
:1037500079FB03E00098002102F004FC05466DB1FE
:103760002E46206880011FD5A06CD8B110280FD03C
:10377000202812D0302815D0012514E0D4F8A82034
:10378000D9F8001021F0E0611143C9F80010E8E712
:10379000386840F40030386004E00221201D02F057
:1037A00051FB05466DB12E462088C0042BD5E06D37
:1037B000B0F5005F20D00DDCA0B1B0F5805F0FD177
:1037C00015E07A48A26C001F016821F03001114316
:1037D0000160E9E7B0F5405F13D0B0F5804F10D03D
:1037E00001250FE0386840F40030386009E000211E
:1037F000201D02F027FB03E00098002102F0B2FB3D
:10380000054685B12E462088800429D5206EB0F566
:10381000403F23D010DC08B3B0F5803F14D0B0F5A2
:10382000003F0FD115E0E26DD8F8001021F4E0411F
:103830001143C8F80010E6E7B0F5802F0ED0B0F5C0
:10384000A02F0BD001250AE00121201D02F0FAFA79
:1038500003E00098012102F085FB05468DB12E465C
:10386000208840042AD5D4F8AC00B0F1405F23D0C2
:1038700010DC08B3B0F1805F14D0B0F1005F0FD15D
:1038800015E0226ED8F8001021F4E0211143C8F8A9
:103890000010E5E7B0F1804F0ED0B0F1A04F0BD093
:1038A00001250AE00121201D02F0CCFA03E0009876
:1038B000012102F057FB05466DB12E462088000419
:1038C0001FD5E06ED8B1B0F1805F0ED0B0F1005FCF
:1038D00010D0012514E0D4F8AC20D9F8001021F064
:1038E000E0411143C9F80010E8E7386840F40030BF
:1038F000386004E00121201D02F0A4FA05466DB1F4
:103900002E462068C0011ED5606CD0B101280ED0B3
:10391000022811D0032814D0012513E0E26ED8F854
:10392000001021F040511143C8F80010E9E7386851
:1039300040F40030386004E00221201D02F082FAD9
:10394000054685B12E462068DFF85CB04002ABF139
:103950001C0B57D51648016841F480710160FFF7D0
:1039600063FA82460EE01148626C001F016821F084
:10397000030111430160E6E7FFF756FAA0EB0A00E6
:1039800064283DD80A480068C005F5D57DBBDFF83E
:103990001CA0B4F8B0100AF1200ADAF8000001F413
:1039A000407100F4407005E02C4402585044025825
:1039B00000480258884211D0DAF80010DAF80020E6
:1039C00021F4407142F48032CAF80020DAF8002075
:1039D00022F48032CAF80020CAF80010D4F8B000EF
:1039E000B0F5807F21D1FFF71FFA019019E008E0C0
:1039F000FFF71AFA0199411A41F28830814210D931
:103A000003252E462078DFF830A4C0073DD0A06FF4
:103A1000182838D026DC80B3082829D0102825D1D2
:103A20002CE0DAF800008007E2D5D4F8B010C1F33A
:103A30000120032858460DD0016821F47C51016013
:103A4000B4F8B020DAF80010C2F30B021143CAF840
:103A50000010D7E7F94A036802EA111223F47C51F7
:103A60001143ECE720280ED028280CD001250BE0CC
:103A70000121201D02F0E6F904E004E00098012194
:103A800002F070FA05465DB12E46207880071ED5FB
:103A9000606F062819D2DFE800F0160C1116161612
:103AA000A26FDAF8001021F038011143CAF80010B3
:103AB000EBE70121201D02F0C5F903E00098012188
:103AC00002F050FA054675B100E001252E46207837
:103AD00040071FD5D4F89000062819D2DFE800F07F
:103AE000160C11161616626FDAF8001021F0070195
:103AF0001143CAF80010EAE70121201D02F0A2F9E3
:103B000003E00098012102F02DFA05469DB100E086
:103B100001252E46207880062BD5D4F88C00B0F1F4
:103B2000405F24D011DC10B3B0F1805F15D0B0F14C
:103B3000005F10D116E0D4F89020D9F8001021F0E1
:103B400007011143C9F80010E4E7B0F1804F0ED02F
:103B5000B0F1A04F0BD001250AE00021201D02F09A
:103B600071F903E00098022102F0FCF905468DB1DD
:103B70002E46207840062BD5D4F89800B0F5406F3B
:103B800024D011DC10B3B0F5806F15D0B0F5006F04
:103B900010D116E0D4F88C20DAF8001021F0E041C2
:103BA0001143CAF80010E4E7B0F5805F0ED0B0F51D
:103BB000A05F0BD001250AE00021201D02F042F990
:103BC00003E00098022102F0CDF905468DB12E46A2
:103BD000207800062BD5D4F89C00B0F5C04F24D037
:103BE00011DC10B3B0F5005F15D0B0F5804F10D1E7
:103BF00016E0D4F89820D9F8001021F4E0511143D0
:103C0000C9F80010E4E7B0F5004F0ED0B0F5204F32
:103C10000BD001250AE00021201D02F013F903E07A
:103C20000098022102F09EF905464DB12E462078FB
:103C300000071ED5D4F88000B0F5805F0AD00FE0F1
:103C4000D4F89C20D9F8001021F460411143C9F840
:103C50000010ECE70098022102F084F900B101267F
:103C6000D4F88020DAF8001021F440511143CAF84A
:103C700000102078C00613D5D4F89400B0F5807FEA
:103C800005D10098022102F06DF900B10126D4F8A7
:103C90009420D9F8001021F440711143C9F80010A4
:103CA0002068000316D5D4F8A00038B1B0F5803FE5
:103CB00009D0B0F5003F0BD001250AE00021201DFE
:103CC00002F0C0F803E00098022102F04BF905462B
:103CD00085B12E462068400322D5D4F88400B0F583
:103CE000801F11D0B0F5001F13D0B0F5401F15D0C4
:103CF000012514E0D4F8A020D9F8001021F44031B7
:103D00001143C9F80010E5E7386840F40030386026
:103D100004E00098012102F025F9054655B12E4630
:103D20002068C0031CD5E06C70B1B0F5803F10D0A6
:103D3000012514E0D4F88420DAF8001021F44011B1
:103D40001143CAF80010EBE7386840F400303860DF
:103D500004E00221201D02F075F80546CDB12E4683
:103D60002068800005D50098022102F0FBF800B120
:103D70000126206880031BD5E06FB8B1B0F5807FC5
:103D800010D0B0F5007F11D0B0F5407F0ED00125E6
:103D90000DE02948E26C0838016821F480311143B4
:103DA0000160DDE7386840F400303860F5B32E4636
:103DB0002068C00207D5226FD8F8001021F000411A
:103DC0001143C8F800102068C00008D5D4F8B4200A
:103DD000DBF8001021F480411143CBF8001020687B
:103DE000800207D5A26ED8F8001021F0807111432F
:103DF000C8F80010206840000CD5DBF8001021F452
:103E00000041CBF80010DBF80010D4F8B8201143C3
:103E1000CBF800102068002807DA0748226D083820
:103E2000016821F040511143016000E008E086B1D3
:103E30000120BDE8FC9F000054440258CFFFFF0062
:103E4000E26FDAF8001021F440711143CAF8001053
:103E5000AEE70020EDE700002DE9F05F04000F461B
:103E60007ED0DFF83882D8F8000000F00F00B842AA
:103E70000CD2D8F8001021F00F013943C8F8001017
:103E8000D8F8000000F00F00B84269D12078844DC6
:103E900040070AD52069296801F07001884204D9D9
:103EA000296821F070010143296020787C4E361D7D
:103EB00000070AD56069316801F07001884204D9B1
:103EC000316821F07001014331602078C0060AD5C5
:103ED000A069316801F4E061884204D9316821F4B5
:103EE000E061014331602078DFF8B4B180060BF166
:103EF000080B0CD5E1695846DBF8002002F070028F
:103F0000914204D9026822F070020A4302602078CC
:103F100080070AD5E068296801F00F01884204D9BA
:103F2000296821F00F01014329602078C0073ED0A5
:103F30005B49A2682868183920F470601043286033
:103F40006068022818D0032819D00968012819D000
:103F5000490700294ADADFF848A1AAF1080A00E077
:103F600044E0DAF8002022F007020243CAF80020F9
:103F7000FEF75AFF814612E009688903E9E70968FC
:103F80008901E6E7C905E4E7FEF74EFFA0EB09016A
:103F900041F28830814202D90320BDE8F09F616878
:103FA000DAF8000000F03800B0EBC10FECD1207857
:103FB00080070AD5E068296801F00F01884204D221
:103FC000296821F00F0101432960D8F8001040460C
:103FD00001F00F01B9420BD9016821F00F013943FB
:103FE0000160006800F00F00B84201D00120D4E762
:103FF000207840070AD52069296801F070018842BD
:1040000004D2296821F0700101432960207800075B
:104010000AD56069316801F07001884204D23168C4
:1040200021F07001014331602078C0060AD5A069F3
:10403000316801F4E061884204D2316821F4E06122
:1040400001433160207880060CD5E1695846DBF8E1
:10405000002002F07002914204D2026822F0700245
:104060000A43026000F048F80E492A682B68C2F340
:10407000032203F00F038A5CC95C02F01F0201F007
:104080001F01D040084A20FA01F111600749086079
:1040900007480068BDE8F05FFEF702BF002000524D
:1040A000184402584A6C0008980000249400002428
:1040B0008C00002430B500F01FF80B4A0B490C4B64
:1040C00015681468C5F3032204F00F048A5C095DC7
:1040D00002F01F0201F01F01D040064A20FA01F150
:1040E00019601060084630BD184402584A6C000838
:1040F0009800002494000024454970B5454809689B
:10410000434B103B11F0380208D00111082A03D0AC
:10411000102A0BD0182A0BD0084670BD19688906E2
:10412000FBD51968C1F3C101C84070BD3A4870BDE4
:104130003749374D18310C1D24350A68096826683F
:104140002D6802F0030406F00102C1F30511C5F366
:10415000CC0515FB02F200EE102AB8EE400AE9B3D6
:104160002F4ADFED2E0AB7EE001A6CB1DFED2D1AE3
:10417000012C01D0022C43D002EE101A1068F8EE88
:10418000422A81EEA22A1EE01C68A40611D51B68F3
:1041900001EE901A1168C3F3C103F8EE612AD8400A
:1041A00001EE900AC1F30800F8EE611A81EEA22A2E
:1041B0000BE001EE901ADFED1C2A00BFF8EE611A49
:1041C000106882EEA12AC0F3080001EE900AF8EE12
:1041D000611A40EE201A31EE810A00E015E022EE6D
:1041E000000A1068C0F34620401C00EE900AF8EE6A
:1041F000600A80EE201ABCEEC10A10EE100A70BDF3
:1042000001EE901ADFED092AD8E7002070BD00000A
:10421000104402580090D00340787D01000000391E
:10422000304402580024744A0024744C20BCBE4B15
:104230002DE9F05F04007CD0FF4F2078FE4D183749
:10424000DFF8F493103DC00748D0D9F80000396872
:1042500000F03800102815D0182803D101F0030011
:1042600002280FD06068B0F5803F12D010B1B0F5D1
:10427000A02F18D0286820F480302860286820F407
:10428000802009E02868800328D560680028D2D003
:1042900024E0286840F480302860606888B1FEF728
:1042A000C3FD064609E0286840F480202860F0E756
:1042B000FEF7BAFD801B64287ED828688003F7D5F6
:1042C0000CE0FEF7B1FD064605E000BFFEF7ACFDD1
:1042D000801B6428F0D828688003F7D4207841F246
:1042E0000308D54E0C3E800753D5D9F80000396835
:1042F00010F038000ED0182801D188070AD0E068E5
:10430000A8B3296821F0190101432960FEF78CFD4B
:1043100082461BE02868400702D5E06800288AD062
:10432000FEF77CFD40451BD82069402812D031683B
:1043300000E0CCE021F47C3141EA0030306028E03C
:10434000FEF772FDA0EB0A000228B5D828684007E6
:10435000F6D5E5E7306820F47C3040F40030EDE736
:10436000207C316821F0FE4141EA0060E6E7FFE78A
:10437000286820F001002860FEF756FD824605E01F
:10438000FEF752FDA0EB0A00022895D828684007E6
:10439000F6D42078C0065FD5D9F80000DFF898B2CF
:1043A000396800F03800ABF1040B082812D0182847
:1043B00005D101F0030000E0EAE001280AD0E0693D
:1043C0000028286838D040F080002860FEF72CFDD7
:1043D000824623E02868C00523D5E069802876D18D
:1043E0001FE0206A202821D0316821F0F84141EAFD
:1043F0008060306030E000BF94F82010DBF80020CF
:1044000022F07C5242EA0161CBF8001024E000BFA8
:10441000FEF70AFDA0EB0A00022896D82868C0051E
:10442000F6D5FEF7FBFC4045E6D8DAE7306820F029
:10443000F84040F08040DCE720F080002860FEF784
:10444000F3FC064605E000BFFEF7EEFC801B0228E9
:104450009BD82868C005F7D42078000729D576486E
:104460006169643000298046016811D041F0010182
:104470000160FEF7D9FC064605E000BFFEF7D4FC5C
:10448000801B0228C9D8D8F800008007F6D510E0B4
:1044900021F001010160FEF7C7FC064605E000BF00
:1044A000FEF7C2FC801B022872D8D8F800008007F3
:1044B000F6D42078800623D5A0690028286810D07B
:1044C00040F480502860FEF7AFFC064605E02CE182
:1044D000FEF7AAFC801B02285AD828688004F7D56A
:1044E0000EE020F480502860FEF79EFC064604E0B3
:1044F000FEF79AFC801B02284AD828688004F7D46B
:10450000207840074FD5DFF83481D8F8001041F407
:104510008071C8F80010FEF787FC064605E000BF72
:10452000FEF782FC801B642832D8D8F80000C00552
:10453000F6D5414EA068603601280AD008B105289A
:1045400013D0306820F001003060306820F00400A3
:1045500002E0306840F001003060A06841F2883A23
:1045600090B1FEF761FC80460AE0306840F004003C
:104570003060EEE7FEF758FCA0EB0801514507D884
:1045800030688007F6D50EE0FEF74EFC804607E067
:1045900084E000BFFEF748FCA0EB080151457DD840
:1045A00030688007F6D4606AF0B3DFF88C80D9F801
:1045B000001008F12008C1F3C20103296FD00228BE
:1045C000286820F08070286003D0FEF72DFC044698
:1045D00080E0FEF729FC064605E000BFFEF724FC5C
:1045E000801B022873D828688001F7D4E26A40F261
:1045F000F331386854F8283F884340EA02101843E2
:104600003860217B4FF4FE0C22894FF0FE47208A50
:104610004902267D521E401EA1F5007189B20CEAA6
:104620000040C2F3080200E081E01143761E01431E
:10463000014807EA066203E01044025800480258A5
:104640001C3011433B4AC8F80010016821F00101F9
:10465000016011684FF6F876236AB14341EAC3015D
:1046600011600168A26921F00C0111430160016829
:10467000E26921F0020111430160016841F48031D7
:104680000160016841F400310160016841F480215A
:104690000160016841F00101016001E017E01DE0E7
:1046A000286840F080702860FEF7BEFB044604E0F6
:1046B000FEF7BAFB001B022809D828688001F7D54D
:1046C00035E000BFFEF7B0FB001B022802D9032033
:1046D000BDE8F09F28688001F4D428E039680128FB
:1046E000D8F8000021D0A26A01F0030393421CD144
:1046F000E26AC1F305118A4217D1216BC0F30802A7
:10470000491E8A4211D1616BC0F34622491E914273
:104710000BD1A16BC0F30642491E914205D1E16B5A
:10472000C0F30660491E814201D00120D0E700207D
:10473000CEE7000034440258401EB0F1807F10B52F
:1047400001D3012010BD4FF0E02460610F216017FC
:1047500002F094F90020A0610721216110BD70478B
:10476000704770472DE9F04390F83C20012A42D071
:10477000012280F83C2051F80C4BDFF880804FF08C
:10478000000991E8680051E9022723F44073B1F869
:104790000CC03B43CF6923F480631343026823F4C6
:1047A0000063234323F4805343EA050323F40053B7
:1047B00043EA060323F4804343EA07030C3923F456
:1047C0007023424543EA0C4302D00D4CA2420CD167
:1047D0008D8C23F47006D1E9073446EA055121F0A7
:1047E0008071194321F000732343536480F83C9097
:1047F0000020BDE8F0830220FBE70000000001403C
:1048000000040140F0B590F83C20012A38D01D4E3C
:10481000012480F83C40022280F83D2002681A4DB5
:104820005368B242D2F808C001D0AA4203D14F68FF
:1048300023F470033B430F6823F070031F4357605A
:104840000268B24210D0B2F1804F0DD00F4B9A42A5
:104850000AD00F4B9A4207D00E4B9A4204D0AA427C
:1048600002D00D4B9A4204D189682CF08003194381
:104870009160002180F83D4080F83C100846F0BD72
:104880000220F0BD0000014000040140000400408F
:1048900000080040000C00400018004010B504461D
:1048A0004FF0020249B104290ED0082913D094F820
:1048B0004700012816D0012010BD94F844000128BB
:1048C000F9D184F844200FE094F845000128F2D192
:1048D00084F8452008E094F846000128EBD184F8DC
:1048E000462001E084F847200422206801F0F9FE08
:1048F0002068094A416C41F40041416420688168A4
:104900001140062906D0B1F5803F03D0016841F07F
:1049100001010160002010BD0700010070B50022F8
:10492000044600680D4601F0DCFE206841F21111DA
:104930008A10036A0B4206D1036A134203D1436C07
:1049400023F4004343642068036A0B4206D1016AE2
:10495000114203D1016821F0010101604FF0010013
:104960003DB1042D08D0082D09D084F8470000205F
:1049700070BD84F84400FAE784F84500F7E784F84E
:104980004600F4E710B5040003D094F83D0010B1E0
:1049900007E0012010BD002084F83C00204600F014
:1049A00023F8022084F83D002068211D01F02AFE32
:1049B000012084F8480084F83E0084F83F0084F821
:1049C000400084F8410084F8420084F8430084F8F1
:1049D000440084F8450084F8460084F8470084F8D1
:1049E0003D00002010BD000008B5154A01681548BB
:1049F00091420ED1016841F001010160006800227E
:104A0000114600F0010000901B20FEF785FA1B20E4
:104A100010E00D4A914211D1016841F0020101609C
:104A200000680022114600F0020000902C20FEF7E2
:104A300073FA2C20BDE80840FEF760BA08BD0000FC
:104A400000000140F04402580004014070B50446E3
:104A500090F83C00012814D0394B012584F83C50D3
:104A6000022084F83D0022689068184020F47F40BE
:104A700090600868702828D010DC10F00F0F03D069
:104A80004BE04FF0020070BD4FEA2012072A44D2DB
:104A9000DFE802F05151515149323A00B0F1101F94
:104AA00049D009DCB0F5805F37D0B0F5005F17D092
:104AB000B0F5801F31D13EE0A0F5801120393AD009
:104AC000102938D0202928D135E04A682068D1E95A
:104AD000021301F013FE2068816841F0770109E0BC
:104AE0004A682068D1E9021301F008FE2068816855
:104AF00041F48041816010E0CA684968206801F093
:104B000099FF2068502106E0CA684968206801F0D2
:104B1000A2FF2068602101F0FBFD002084F83D50D9
:104B200084F83C0070BDCA684968206801F082FFC3
:104B300020684021EFE7226801461046EBE70000BD
:104B400088FFCEFF2DE9F04104000D4603D094F814
:104B50003D0018B108E00120BDE8F081002084F894
:104B60003C00204600F04CF8244A022084F83D0026
:104B700020688168114081602068211D01F042FD9C
:104B8000226840F20336AF6940F60C4C2B684FF2B6
:104B9000F00EA86891680B439169B14341EA07217F
:104BA0000843D5E9031720EA0C00D5E9076C20EA91
:104BB0000E00D2F820E03F0140EA062668686D69E1
:104BC000314347EA0C37936023680F4301219F610B
:104BD0002EF0AA0242EA051322681843106284F8F4
:104BE000481084F83E1084F83F1084F8441084F88C
:104BF000451084F83D100020AEE70000F8BFFEFF2E
:104C000010B586B0044614216846FBF768FB1249CC
:104C1000206888421ED11148016841F002010160FC
:104C2000006800F0020005900C480838016841F067
:104C30000201016000683021012200F002000590AD
:104C400002200490CDE90010CDE902200448694615
:104C5000FDF7C6FF06B010BD00040040E84402584E
:104C60000004025870B504464FF0020094F83E204C
:104C700094F83F5094F8446094F8453021B10429E9
:104C80000DD0012A1AD113E0012A17D1012E15D116
:104C900084F83E0084F844000021206820E0012DC3
:104CA0000CD1012B0AD184F83F0084F8450014E0B0
:104CB000012D03D1012E01D1012B01D0012070BDA6
:104CC00084F83E0084F83F0084F8440084F84500EE
:104CD00001222068002101F0F7FC20680122042154
:104CE00001F0F2FC2068016841F001010160002040
:104CF00070BD704770B50446006800250169C9435E
:104D0000890715D4C168C943890711D4EA1E026115
:104D100001212177206880698007204602D0FFF7B3
:104D2000E8FF04E000F006F9204600F078FA257765
:104D300020680169C943490717D4C168C9434907B5
:104D400013D402216FF00402026121772068806988
:104D500010F4407F204602D0FFF7CBFF04E000F0C4
:104D6000E9F8204600F05BFA257720680169C9431D
:104D7000090716D4C168C943090712D404216FF08A
:104D80000802026121772068C0698007204602D0AE
:104D9000FFF7AFFF04E000F0CDF8204600F03FFA47
:104DA000257720680169C943C90617D4C168C9437A
:104DB000C90613D408216FF0100202612177206820
:104DC000C06910F4407F204602D0FFF792FF04E054
:104DD00000F0B0F8204600F022FA2577206801693B
:104DE000C943C90708D1C168C943C90704D1891E8D
:104DF0000161204600F0D8FA20680169C94309061C
:104E000009D4C168C943090605D46FF08001016166
:104E10002046FFF7A5FC20680169C943C90509D4EC
:104E2000C168C943090605D46FF480710161204649
:104E3000FFF795FC20680169C943490609D4C16898
:104E4000C943490605D46FF040010161204600F0D6
:104E5000ACFA20680169C94389060BD4C168C9430B
:104E6000890607D46FF0200101612046BDE870403B
:104E7000FFF777BC70BD000010B586B00446142162
:104E80006846FBF72CFA0E492068884216D10D4877
:104E9000016841F010010160006802AC4FF47C51E0
:104EA00000F010000590022003220123CDE900103C
:104EB00084E80D0004486946FDF792FE06B010BD77
:104EC00000000140E04402580010025810B50446AA
:104ED00090F83C0001280BD0012084F83C000C2AFB
:104EE00019D007DC5AB1042A0DD0082A1ED10EE0D1
:104EF000022010BD102A12D0142A17D113E0206806
:104F000001F010FC12E0206801F060FC0EE0206867
:104F100001F0A8FC0AE0206801F0EAFC06E0206845
:104F200001F01CFD02E0206801F04EFD002084F835
:104F30003C0010BD704710B5040003D094F83D004C
:104F400010B107E0012010BD002084F83C0020468D
:104F500000F022F8022084F83D002068211D01F0B5
:104F600051FB012084F8480084F83E0084F83F009B
:104F700084F8400084F8410084F8420084F843003B
:104F800084F8440084F8450084F8460084F847001B
:104F900084F83D00002010BD7047000010B50446A5
:104FA0004FF0020269B1042916D0082920D00C293B
:104FB00029D010292ED094F84300012831D00120A7
:104FC00010BD94F83E000128F9D184F83E202068F5
:104FD000C26842F0020209E094F83F000128EED1D5
:104FE00084F83F202068C26842F00402C2601CE0DE
:104FF00094F840000128E2D184F840202068C2687B
:1050000042F00802F2E794F841000128D7D184F871
:10501000412008E094F842000128D0D184F84220D1
:1050200003E084F843200C2926D02068012201F0F7
:105030004BFB1449206888420BD01349884208D0A2
:105040001249884205D01249884202D0114988424B
:1050500003D1416C41F40041416420680E4A8168EB
:105060001140062906D0B1F5803F03D0016841F018
:1050700001010160002010BD2068C26842F01002EA
:10508000B4E700000000014000040140004001407E
:1050900000440140004801400700010070B504468B
:1050A00090F83C000D4601280BD0012084F83C000C
:1050B0000C2A45D007DC5AB1042A1BD0082A78D123
:1050C0002CE0022070BD102A4ED0142A71D15DE070
:1050D000206801F027FB2068816941F008018161A7
:1050E0002068816921F00401816120682A69816951
:1050F000114311E0206801F069FB2068816941F4E7
:10510000006181612068816921F48061816120688A
:105110002969826942EA012181614AE0206801F03F
:10512000A1FB2068C16941F00801C1612068C16923
:1051300021F00401C16120682A69C169114311E0AD
:10514000206801F0D5FB2068C16941F40061C161AC
:105150002068C16921F48061C16120682969C26940
:1051600042EA0121C16124E0206801F0F7FB2068D8
:10517000416D41F0080141652068416D21F0040155
:10518000416520682A69416D114311E0206801F0F2
:105190001BFC2068416D41F4006141652068416D50
:1051A00021F48061416520682969426D42EA01214C
:1051B0004165002084F83C0070BD10B5040003D0A8
:1051C00094F83D0010B107E0012010BD002084F8E4
:1051D0003C00204600F022F8022084F83D002068C0
:1051E000211D01F00FFA012084F8480084F83E00E8
:1051F00084F83F0084F8400084F8410084F84200BD
:1052000084F8430084F8440084F8450084F846009C
:1052100084F8470084F83D00002010BD70477047B7
:1052200010B504464FF0020269B1042912D00829D2
:1052300017D00C291CD0102921D094F84300012844
:1052400024D0012010BD94F83E000128F9D184F843
:105250003E201DE094F83F000128F2D184F83F2061
:1052600016E094F840000128EBD184F840200FE0CC
:1052700094F841000128E4D184F8412008E094F832
:1052800042000128DDD184F8422001E084F8432067
:105290000122206801F018FA1149206888420BD0D9
:1052A0001049884208D01049884205D00F498842E9
:1052B00002D00F49884203D1416C41F4004141645E
:1052C00020680C4A81681140062906D0B1F5803F5C
:1052D00003D0016841F001010160002010BD000011
:1052E0000000014000040140004001400044014032
:1052F000004801400700010030B500220446006864
:105300000D4601F0E1F941F21111224B20688A109B
:1053100098420BD0204B984208D0204B984205D0A1
:105320001F4B984202D01F4B984209D1036A0B428F
:1053300006D1036A134203D1436C23F40043436450
:105340002068036A0B4206D1016A114203D1016849
:1053500021F0010101604FF001005DB1042D0CD07E
:10536000082D0DD00C2D0ED0102D0FD084F8430039
:10537000002030BD84F83E00FAE784F83F00F7E7EC
:1053800084F84000F4E784F84100F1E784F8420033
:10539000EEE7000000000140000401400040014031
:1053A000004401400048014070477047FEE790ED1F
:1053B000000AD1ED011AD0ED010A91ED001A20EE9C
:1053C000210A00EEC10A82ED000A90ED000AD1ED3B
:1053D000001AD0ED010A91ED011A20EE210A00EE2B
:1053E000810A82ED010A70478068C0F3C0007047EF
:1053F0008068C0F3800070478068C0F38000704709
:10540000C06810F4406F01D0002070470120704741
:1054100010B5042404EAD1540723C1F304512044F5
:105420008B408A40416999431143416110BD00009E
:1054300000B58BB00020089009900A901C2101A8AB
:10544000FAF74DFF3148324908604FF400204860B8
:1054500008212F4881600121C160042101610021E0
:1054600001754175042181610021017741628162EA
:105470000321C16200210163416380F83810FCF709
:10548000FBF808B1FBF736FB0020089008A920487C
:10549000FBF776FC08B1FBF72DFB1E4801900620B8
:1054A00002900020039040F2FF70049004200590C9
:1054B000002006908DF81D0001A91548FBF7F2FCAD
:1054C00008B1FBF717FB144801900C20029001A9CA
:1054D0000F48FBF7E7FC08B1FBF70CFB0F48019006
:1054E0001220029001A90A48FBF7DCFC08B1FBF787
:1054F00001FB0B4801901820029001A90448FBF71A
:10550000D1FC08B1FBF7F6FA0BB000BD0020024059
:10551000A0000024040060080800900C1000C010D7
:105520002000F01400B587B01C216846FAF7D7FEBA
:105530001C481D4908604FF40020486008211A48A3
:1055400081600021C1600421016100210175417564
:105550000121816100210177416281620321C162E1
:1055600000210163416380F83810FCF785F808B129
:10557000FBF7C0FA0D480090062001900020029031
:1055800040F2FF70039004200490002005908DF8F5
:10559000190069460448FBF785FC08B1FBF7AAFA35
:1055A00007B000BD00600258040100242000F01480
:1055B00000B589B024216846FAF791FE12491148D6
:1055C00008600846FCF7C4FB08B1FBF793FA00201B
:1055D00000900121019004900246CDE902010A48A1
:1055E0006946FCF70BFB08B1FBF784FA064810226A
:1055F0006946FCF703FB002801D0FBF77BFA09B0F2
:1056000000BD000000740040580200240D4808B599
:10561000016841F00101016000680022114600F0BC
:10562000010000900B20FDF777FC0B20FDF766FCD6
:1056300000220C201146FDF76FFCBDE808400C204D
:10564000FDF75CBCD84402582DE9F04F87B0142117
:105650006846FAF744FE6F48016841F010010160A6
:10566000016801F010010591016841F00401016039
:10567000016801F004010591016841F02001016019
:10568000016801F020010591016841F0800101608D
:10569000016801F080010591016841F0010101609C
:1056A000016801F001010591016841F0020101600A
:1056B000016801F002010591016841F040010160BB
:1056C000016801F040010591016841F008010160A5
:1056D00000680022DFF840A1822100F00800059058
:1056E0005046FDF795FB4FF480584C480122414647
:1056F000FDF78EFB03254CF27D00002469460294E1
:10570000CDE900055046FDF76BFADFF814B143F61A
:105710006F60CDE90005694658460294FDF760FACE
:105720004FF2FF706946CDE900053E480294FDF74F
:1057300057FA3D4F0126009669463848CDE9017475
:10574000FDF74EFA48F68E706946CDE900053348FC
:105750000294FDF745FADFF8D4904FF6C570CDE915
:105760000005694648460294FDF73AFA48F24000BF
:105770006946CDE900060220CDE902404846FDF722
:105780002FFADFF8AC9047F6FF70CDE900056946C7
:1057900048460294FDF724FA82200090CDE9016486
:1057A000694650460394FDF71BFA4FF6FF706946B1
:1057B000CDE900051F480294FDF712FA1E49E801E1
:1057C0008DE8130069465846FDF70AFACDF80080C7
:1057D0006946CDE9016411480394FDF701FAF0032D
:1057E0006946CDE9000748460296FDF7F9F900221F
:1057F00017201146FDF790FB1720FDF77FFB0022D5
:1058000028201146FDF788FB2820FDF777FB07B01D
:10581000BDE8F08FE0440258001002580000025822
:105820000008025800140258000011110004025828
:1058300000180258000C025800002111F0B599B070
:1058400000241C21009407A801940294039404945A
:1058500005940694FAF743FD2C210EA8FAF73FFDB4
:10586000454D20214548802340F6B732E5E8020443
:10587000414885E81600C5E90343083DFFF782F873
:1058800008B1FBF737F94FF4805000903A48694669
:10589000FFF7DCF808B1FBF72DF93748FFF78DFC6F
:1058A00008B1FBF727F93448FFF745FB08B1FBF7D0
:1058B00021F9314804A9049405940694FEF7A2FF47
:1058C00008B1FBF717F907AB7020C82183E8130074
:1058D0004FF40072284807A90A940B94CDE90C42B2
:1058E0000022FFF7DBFB08B1FBF704F9FA20089070
:1058F0002148042207A9FFF7D1FB08B1FBF7FAF80A
:105900004FF4967008901C48082207A9FFF7C6FBC1
:1059100008B1FBF7EFF840F686310D9430200C22E9
:10592000CDE90701144807A9FFF7D0FA08B1FBF742
:10593000E1F82D684FF400604610C110EF6978223D
:10594000830047F40067EF6110AF850387E8160016
:10595000CDE91334CDE9154518940EA9CDE90E060D
:1059600005481794FEF7FEFE08B1FBF7C3F802489E
:10597000FFF782FA19B0F0BD6C020024000001406C
:1059800030B58DB024216846FAF7A9FC16480024EA
:10599000144D40F6FF73099401220A9406210B94DA
:1059A000056003254460C0E90243046184610095F9
:1059B000CDE90142CDE90341CDE90542CDE90741F9
:1059C0006946FFF7BFF808B1FBF794F8064809A944
:1059D00009940B94FEF716FF002801D0FBF78AF814
:1059E0000DB030BD00040040B802002410B588B0EE
:1059F00018480024164942F20F7242F6DF63009401
:105A000001940294039404940594069480E816008B
:105A1000C0E9033444618461FEF7B4FF08B1FBF7C9
:105A200069F84FF4805000900A486946FFF70EF875
:105A300008B1FBF75FF8074804A90494059406949D
:105A4000FEF7E0FE002801D0FBF754F808B010BDC7
:105A50000004014004030024FEE700002DE9F047A4
:105A6000DFF85890012189F803100027DFF850A0D3
:105A7000B8463E463D463C460220FDF791F8BAF84E
:105A80000030641CBAF80210102CBAF804201F442D
:105A9000BAF806C0884416446544EDDB084834096A
:105AA0003A092D09002689F8036012384FEA1813C5
:105AB00042808380C4800581BDE8F08772000024A5
:105AC0006A0000244FF4805210B50C46511E9042DB
:105AD00000D30846944200D30C46034600220648F1
